:040000008031132810
:100008007E14803120007F08F1008B1A0B1D0E280A
:100018008131862171082000FF007E10090080319F
:100028001528F6308400813085007930860000304C
:10003800870003308131E1218031B630840081307E
:10004800850020308600003087000E308131E121A4
:10005800F601F701F8017E10200081314929F200EC
:100068008131D021803122008E1492280D160D176F
:100078000E150E170E160E148D1208000D120D1700
:100088000E150E130E120E108D1208000D160D17F8
:100098000E110E170E160E108D1608000D160D17E0
:1000A8000E150E170E120E108D1608000D120D17D4
:1000B8000E150E130E120E148D1608000D160D13C4
:1000C8000E150E170E120E148D1608000D160D13B0
:1000D8000E150E170E160E148D1608000D160D1798
:1000E8000E150E130E120E108D1208000D160D1798
:1000F8000E150E170E160E148D1608000D160D1778
:100108000E150E130E120E148D1608000D160D1373
:100118000E110E170E160E148D1608007208003AEE
:1001280003193A28013A03194228033A03194A28BD
:10013800013A03195228073A03195A28013A0319B0
:100148006228033A03196A28013A031972280F3AF8
:1001580003197A28013A031982288A2808000130ED
:10016800F2007208FB07F701200023087B02031C3A
:10017800C2280130F2007208F607FB012208760255
:10018800031CCC280130F2007208FA07F601FB01C3
:1001980021087A02031CD7280130F2007208F907F7
:1001A800FA01F601FB0102307902031CDF28043052
:1001B8007A020318E32803307902031CE728F901BF
:1001C800FA01F601FB017B08F2007208A600760826
:1001D800F2007208A8007A08F2007208AA007908EA
:1001E800F2007208AC000800F4008131DA21803195
:1001F800730880313320803122008E1112292200A9
:100208008D13080022008E13080022008E120800A9
:1002180022008C1208008131DA2108007408013AA2
:1002280003190329033A03190629013A031909296D
:10023800073A03190C290F29080020002C08F5009B
:100248007508F3002D088031F82081310000200066
:100258002A08F5007508F3002B088031F820813151
:10026800000020002808F5007508F30029088031EF
:10027800F8208131000020002608F5007508F300F9
:1002880027088031F820000008003C302000B10029
:100298003108B200F701F8018131C42181318B178F
:1002A8000B1711302000B1003A30890B5929B10BD6
:1002B80059290000200032087702031C6629803182
:1002C800B32081318131212181315E2924302200FE
:1002D8008C0080308D00A8308E00093021008C0001
:1002E8008D018E0123008E018D0101308C002400C8
:1002F8008D0109308C008E012100951322009E018A
:100308009D0108000B11200030089500780803199A
:1003180093290130F0007008F707F8019729013098
:10032800F0007008F8002E082F04031908002F08A1
:100338008A002E080A008131080021001508C039FA
:10034800173895000C30200095000C30F400740824
:10035800B0000B118B16F930F2000130F300813137
:10036800E721080003340A3406340A343C340A34DA
:1003780004340434033403340234023401340134C1
:1003880081316A2181318131ED2181318131F2213F
:1003980081318131A121080022000D120D130E11A7
:1003A8000E130E120E108D128E10080022008D17DB
:1003B8008E178E168C168E150800FE0012001E0071
:1003C800FE0BE229003473082000AF007208AE006B
:1003D80008003830210099009801080016302100E3
:0C03E800970008000134073408340800B6
:020000040001F9
:04000E00E4FFFFFE0E
:00000001FF
