:1000000004308A00852C0000FF00030E8301A1004C
:100010000A08A0008A010408A2007708A300780853
:10002000A4007908A5007A08A60003170D08031399
:10003000A70003170F080313A80003170C080313E6
:10004000A90003170E080313AA00831383128B1E43
:100050002B280B194C28220884002308F7002408B9
:10006000F8002508F9002608FA00270803178D0074
:100070000313280803178F000313290803178C00A4
:1000800003132A0803178E00031320088A00210E89
:100090008300FF0E7F0E09008A110A124F28831673
:1000A00089100230831289062B0881000B118A11F6
:1000B0000A122B284539F23772000C00C330F23394
:1000C000611DA01275004639E5312824FA143A1052
:1000D000252675004E3084008313000803197D28FF
:1000E0000630F800F701F70B7328F80B72287B3005
:1000F000F700F70B7928800B702808005518822824
:10010000081283280816831608128312D5188A2825
:1001100088128B2888168316881283125519922804
:10012000081393280817831608138312D5199A28E1
:1001300088139B288817831688130000831288155C
:10014000831688110230F700F70BA428A7280000B7
:10015000831288118316881183120800D601831632
:10016000081600308312081A0130D6048316881648
:1001700000308312881A0130F7000310F70D77085A
:10018000D6048316081700308312081B0130F700CD
:10019000F70DF70DFC30F7057708D604831688179E
:1001A00000308312881B0130F700F70DF70DF70DB3
:1001B000F830F7057708D6045608F80008008316CB
:1001C00088110811051083120811831608110816EA
:1001D0008816081788178312051483160510000067
:1001E000831288158316881100008312AE207808C8
:1001F000D500881183168811000083128815831694
:1002000088110229032900008312AE207808D40047
:100210008811831688110812881208138813831214
:10022000550EF700F030F70577085404F800780809
:10023000D400D41F1D298316E728D208031D2229C4
:1002400008112329081583160811000083120510D0
:1002500083160510000083128811831688118312FB
:10026000530ED4000F30D4055408D5007E20530817
:100270000F39D400D5007E2008002830BE000C3095
:10028000BF000130C0000630C100881183168811FC
:1002900083120811831608118312051083160510A6
:1002A00008128812081388138811081105100F30DE
:1002B0008312CE006A200130BD003D08033C031CC0
:1002C00069290330D5007E200530CE006A20BD0AA2
:1002D0005D290230D5007E200530CE006A20BD01A8
:1002E0003D08033C031C80293E303D0784008313F6
:1002F0000008C200D2014208D300DF20BD0A7029E5
:100300008A110A12AE2C4F0B862989294030D00061
:100310008A29D00101304E02D00750088038D10020
:10032000D2015108D300DF2008004D08073A031915
:10033000A3290B3A0319A829063A0319B029023A4E
:100340000319B629BB290130CE00CF008321C02973
:10035000D2010130D300DF200230CE006A20C02954
:100360000130CE000230CF008321C029D2011030ED
:10037000D300DF20C0290130D2004D08D300DF2098
:1003800008000B08BD008B13831603178C170C1481
:100390000000000083120313BD1B8B1703170C080A
:1003A0007F390319152A0313BD0003170D08031322
:1003B000BE0003170F080313BF003D08CD009521B1
:1003C0003E0803178D0003133F0803178F00031324
:1003D0000B08C0008B13831603178C170C14000036
:1003E000000083120313C01B8B1703170C0D0E0D97
:1003F0007F390319152A0313BD0003170D080313D2
:10040000BE0003170F080313BF003D08CD00952160
:100410003E0803178D0003133F0803178F008D0A52
:1004200003198F0A0313C129031703130800831844
:100430001C2A553084008313F701F801F901FA01F1
:10044000D501D601D701D8015408530452045104F0
:1004500003195A2A2030D9000310CD0DCE0DCF0D2F
:10046000D00DD50DD60DD70DD80D54085802031D4B
:10047000432A53085702031D432A52085602031DFC
:10048000432A51085502031C542A5108D502520828
:10049000031C520FD6025308031C530FD7025408F3
:1004A000031C540FD8020314F70DF80DF90DFA0DC3
:1004B000D90B2C2A55088000840A56088000840A2B
:1004C00057088000840A5808800008002030C900BE
:1004D000C501C601C701C8014008FA003F08F9007C
:1004E0003E08F8003D08F7000310771C852A4108F4
:1004F000C50742080318420FC60743080318430FF5
:10050000C70744080318440FC807C80CC70CC60C1B
:10051000C50CFA0CF90CF80CF70CC90B742A08007E
:100520002F08C0002E08BF002D08BE002C08BD00FB
:10053000C401C301C2016430C10066227A08B3005D
:100540007908B2007808B1007708B000831033084A
:10055000D0003208CF003108CE003008CD00D401E1
:10056000D3012730D2001030D10017223030770766
:10057000B40034082F3C0318C12A3408393C03184E
:10058000C32A3030B40083103308D0003208CF00C3
:100590003108CE003008CD00D401D3010330D200A1
:1005A000E830D100172230307707B50035082F3CEE
:1005B0000318DE2A3508393C0318E02A3030B5002C
:1005C00083143D30840083133308D0003208CF00F9
:1005D0003108CE003008CD00D401D3010330D20061
:1005E000E830D10017224008C4003F08C3003E088D
:1005F000C2003D08C100C6010408C5004610831BA7
:10060000461483104008D0003F08CF003E08CE00BB
:100610003D08CD00D401D301D2010A30D100172208
:100620004508840083134618831730307707B600D7
:1006300036082F3C0318202B3608393C0318222B90
:100640003030B60083143D30840083133308D0006B
:100650003208CF003108CE003008CD00D401D301DC
:100660000330D200E830D10017224008C4003F0810
:10067000C3003E08C2003D08C100C6010408C50011
:100680004610831B461483144730840083134008AC
:10069000D0003F08CF003E08CE003D08CD00D40179
:1006A000D301D2010A30D1001722450884008313F8
:1006B0004618831730304707B70037082F3C031818
:1006C000652B3708393C0318672B3030B70083148B
:1006D0003D30840083133308D0003208CF00310846
:1006E000CE003008CD00D401D301D2010A30D100B0
:1006F000172230303D07B80038082F3C0318842BF0
:100700003808393C0318862B3030B8008A110A1299
:100710000A2D0B08C2008B13831603178C170C14B9
:100720000000000083120313C21B8B170318C02B99
:1007300003170C087F390313C20003170D080313B6
:10074000C30003170F080313C4004208CD0095210E
:10075000430803178D000313440803178F00031386
:100760000B08C5008B13831603178C170C1400009D
:10077000000083120313C51B8B17C10BC02BDF2B8B
:1007800003170C0D0E0D7F390313C20003170D085C
:100790000313C30003170F080313C4004208CD005E
:1007A0009521430803178D000313440803178F0096
:1007B0008D0A03198F0A03100313C10B892B08003C
:1007C0004008F8013F020318E82B3F08F700F42B1C
:1007D000F7010830C100BF0DF70D4008770203187C
:1007E000F700F80DC10BEB2B080078083D08BF009F
:1007F0006430C000E0237708BD0078083030031D66
:10080000082CBE1C0F2CBE190F2C3E1A20300B2CAE
:10081000BE113E123E14F8077808CD0095213D0820
:10082000BF000A30C000E0237708BD0078083030F0
:10083000031D202CBE19242C3E1C242C3E1A2030D3
:10084000F8077808CD0095213030BD073D08CD0070
:1008500095218A110A12242D0408C5003B30CC00D2
:100860009A30CB00CA30CA00C9010A30C7008314CD
:100870004130840083134408D0004308CF0042086D
:10088000CE004108CD004C08D4004B08D3004A08E4
:10089000D2004908D10017227808F708031D632CFD
:1008A0004708013A0319632C45080319642C0F39D2
:1008B000470203195D2C0318692CC51B692C451BC5
:1008C000642C2030652CC5013030F7077708CD0047
:1008D000952183104C08D0004B08CF004A08CE0069
:1008E0004908CD00D401D301D2010A30D10017222A
:1008F0007A08CC007908CB007808CA007708C900CC
:10090000C70B372C8A110A12542D03081F39830094
:10091000AF01AE01AD012230AC0083161F149F144D
:100920001F159F1107309C00831330308312B400D1
:100930003330B5003030B600B700B8002030B90011
:100940004830BA007A30BB00BC010F3083168600F5
:10095000091089100911811783123D295A30031794
:100960008D0000308F000313C12183160108C039A8
:100970000138810083122C0DF7002D0DF8002E0D8B
:10098000F9002F0DFA00F70DF80DF90DFA0DF70D1E
:10099000F80DF90DFA0DF70DF80DF90DFA0DF70D2B
:1009A000F80DF90DFA0DE030F7057A08C000790866
:1009B000BF007808BE007708BD008310D001033067
:1009C000CF000D30CE004030CD007A08D400790839
:1009D000D3007808D2007708D10017227708003CAE
:1009E000BD000130BE007808031C780FBE02BF01B5
:1009F0007908031C790FBF02C0017A08031C7A0F23
:100A0000C0020F303D07AB002B0881008B16C030B1
:100A10008B04902A5D3003178D0000308F00031384
:100A2000C1210130CE00CF0083215E3003178D003D
:100A300000308F00031007300313C10089232B08F7
:100A4000BD001B30BE00F52B0130CE000230CF00C0
:100A500083212F08C0002E08BF002D08BE002C08DF
:100A6000BD00C401C301C2016430C10066227A081E
:100A7000C0007908BF007808BE007708BD00633069
:100A800003178D0000308F0003100A300313C100DC
:100A90008923413084004008C4003F08C3003E0859
:100AA000C2003D08C1002C2C6430CE006A200A2D03
:020AB0006300E1
:02400E00723FFF
:00000001FF
;PIC16F877A
;CRC=281D  CREATED="05-Jun.-18 12:31"
